:100000000C9471000C9499000C9499000C94990034
:100010000C9499000C9499000C9499000C949900FC
:100020000C9499000C9499000C9499000C949900EC
:100030000C9499000C9499000C9499000C949900DC
:100040000C94F90A0C9499000C94690B0C94430BD2
:100050000C9499000C9499000C9499000C949900BC
:100060000C949B0B0C9499000D0A006578747261D6
:1000700000746573740068656C70000D0A00646537
:10008000766963653E00436F6D6D616E64204E4F0F
:100090005420666F756E642E000000000025002855
:1000A000002B0004040404040404040202020202FB
:1000B000020303030303030102040810204080012C
:1000C00002040810200102040810200000000800AB
:1000D000020100000304070000000000000000000F
:1000E000BA0C11241FBECFEFD8E0DEBFCDBF14E0A5
:1000F000A0E0B1E0E8E1F2E202C005900D92AA337F
:10010000B107D9F726E0AAE3B4E001C01D92A932F5
:10011000B207E1F710E0C1E7D0E004C02197FE018B
:100120000E94C70FC037D107C9F70E94FC0C0C947E
:100130000A110C9400000895089590E0FC01E55325
:10014000FF4F2491FC01E954FF4F3491FC01ED5520
:10015000FF4FE491EE23C9F0222339F0233001F15F
:10016000A8F4213019F1223029F1F0E0EE0FFF1F41
:10017000E756FF4FA591B4918FB7F894EC916111B8
:1001800026C030953E233C938FBF08952730A9F0B9
:100190002830C9F0243049F7809180008F7D03C05A
:1001A000809180008F7780938000DFCF84B58F7738
:1001B00084BDDBCF84B58F7DFBCF8091B0008F777E
:1001C0008093B000D2CF8091B0008F7DF9CF3E2BCD
:1001D000DACF3FB7F8948091F8049091F904A09198
:1001E000FA04B091FB0426B5A89B05C02F3F19F077
:1001F0000196A11DB11D3FBFBA2FA92F982F8827A7
:10020000BC01CD01620F711D811D911D42E0660F81
:10021000771F881F991F4A95D1F708958F929F9253
:10022000AF92BF92CF92DF92EF92FF924B015C01AF
:100230000E94E9006B017C010E94E9006C197D09B4
:100240008E099F09683E734081059105A8F321E05E
:10025000821A9108A108B10888EEC80E83E0D81E62
:10026000E11CF11C81149104A104B10429F7FF9051
:10027000EF90DF90CF90BF90AF909F908F900895B8
:10028000AF92BF92CF92DF92EF92FF920F931F93A4
:10029000CF93DF936C017B018B01040F151FEB01E2
:1002A0005E01AE18BF08C017D10759F06991D60199
:1002B000ED91FC910190F081E02DC6010995892B0B
:1002C00079F7C501DF91CF911F910F91FF90EF90CA
:1002D000DF90CF90BF90AF900895FC01538D448D77
:1002E000252F30E0842F90E0821B930B541710F0E1
:1002F000CF96089501970895FC01918D828D9817EE
:1003000061F0A28DAE0FBF2FB11D5D968C91928DC5
:100310009F5F9F73928F90E008958FEF9FEF0895F6
:10032000FC01918D828D981731F0828DE80FF11DBF
:10033000858D90E008958FEF9FEF0895FC01918DDA
:10034000228D892F90E0805C9F4F821B91098F73D3
:100350009927089582E795E00E949E0121E0892B6C
:1003600009F420E0822F089580E090E0892B29F0A5
:100370000E94AA0181110C9400000895FC01A48D33
:10038000A80FB92FB11DA35ABF4F2C91848D90E0B7
:1003900001968F739927848FA689B7892C93A0899A
:1003A000B1898C91837080648C93938D848D981324
:1003B00006C00288F389E02D80818F7D80830895B7
:1003C000EF92FF920F931F93CF93DF93EC0181E0A5
:1003D000888F9B8D8C8D98131AC0E889F98980814C
:1003E00085FF15C09FB7F894EE89FF896083E8897F
:1003F000F98980818370806480839FBF81E090E071
:10040000DF91CF911F910F91FF90EF900895F62EFD
:100410000B8D10E00F5F1F4F0F731127E02E8C8D97
:100420008E110CC00FB607FCFACFE889F9898081DC
:1004300085FFF5CFCE010E94BE01F1CFEB8DEC0F11
:10044000FD2FF11DE35AFF4FF0829FB7F8940B8FF9
:10045000EA89FB8980818062CFCFCF93DF93EC0163
:10046000888D8823B9F0AA89BB89E889F9898C919C
:1004700085FD03C0808186FD0DC00FB607FCF7CF58
:100480008C9185FFF2CF808185FFEDCFCE010E9458
:10049000BE01E9CFDF91CF910895AF92BF92CF9285
:1004A000DF92EF92FF920F931F93CF93DF93EC01B4
:1004B0008B017A01E1E0F0E0CE01BF010E94670FFD
:1004C0006017710788F4D12CC12C3097B1F4F90171
:1004D0001082DF91CF911F910F91FF90EF90DF90ED
:1004E000CF90BF90AF900895CF01809FF001819F82
:1004F000F00D909FF00D1124DFCFCE01BF010E94BF
:10050000670F462FA62EB72EEC01CF01B8010E942F
:10051000670FFB01C114D10479F41A141B0464F0B1
:10052000309799F660E3640FD9016C93BFEFCB1A53
:10053000DB0A2F5F3F4FC9CF9AE0A916B10494F3AD
:1005400067E5E114F10479F367E3EDCF9091F204EC
:10055000992339F0E0917E04F0917F04309709F0FF
:1005600009940895FF920F931F93CF93DF9330E286
:10057000F32E662311F020E3F22E8A01FA01219175
:1005800021110BC0EC011C161D0654F48F2D0E9486
:10059000A6022197F8CF0197F2CF18161906DCF3BF
:1005A000F80181918F01811106C0DF91CF911F91D8
:1005B0000F91FF9008950E94A602F2CFCF93DF9390
:1005C000EC01FE0184912196882319F00E94A60275
:1005D000F8CFDF91CF910895CF93DF93EC0189910C
:1005E000811106C088E690E0DF91CF910C94DE0285
:1005F0000E94A602F4CF8AE291E00E94EC028AE512
:1006000091E00E94EC028AE291E00E94EC0281E01B
:1006100092E00E94EC028CE691E00E94EC0281E004
:1006200092E00E94EC0285E791E00E94EC0283E8F0
:1006300091E00E94EC0281E991E00E94EC028FE9D6
:1006400091E00E94EC0281E092E00E94EC0281EBDA
:1006500091E00E94EC028CEB91E00E94EC0287ECAE
:1006600091E00E94EC0281E092E00E94EC028AE2BA
:1006700091E00E94EC0281ED91E00E94EC0290E09A
:1006800080E0089589ED91E00E94EC0281ED91E017
:100690000E94EC0290E080E00895E0E8F4E030E0B1
:1006A00020E040815181452B21F442815381452B2B
:1006B00041F02F5F3F4F34962530310591F780E0B0
:1006C0000895220F331F220F331FF901E058FB4F0B
:1006D000918380837383628381E0089520915B041A
:1006E000260F3327331F21323105ECF420914805C2
:1006F000FC0190E080E0243069F082E00895A09150
:100700005B042191AC01455C5B4FA40FB52FB11D7B
:100710002C930196861798F380915B04680F609381
:100720005B0480E0089581E008951092480581E01F
:10073000809347051092220561E082E10E949D00AE
:1007400061E083E10E949D00E9EBF0E080818E7F13
:10075000808380818D7F808388E48093B80085E4E6
:100760008093BC000895CF93DF9391E090933A0477
:100770008823B9F0C091B800D091BA008091BC0034
:100780008A7B8093BC0060E082E10E949D0060E073
:1007900083E10E949D000E949503D093BA00C0930C
:1007A000B800DF91CF9108958F929F92AF92BF9240
:1007B000CF92DF92EF92FF920F931F93CF93DF932D
:1007C000D0917105D13208F0D7C0182FC0917005B3
:1007D0000E94E9006B017C018091480581116BC08A
:1007E00082E080934805109347058FEF809346057C
:1007F00010924505D0934405A0E5B5E0E4E2F5E0AC
:1008000080E0D81391C01092230580912305CC0F6E
:10081000C82BC093230580912205813009F088C040
:10082000109222050E94E9006B017C018091230552
:100830008093BB0080914A0590914B05A0914C0597
:10084000B0914D05892B8A2B8B2BA1F00E94E900DA
:1008500000914A0510914B0520914C0530914D05B2
:100860006C197D098E099F09061717072807390794
:1008700008F442C08091BC0083FDD8CF85EC809302
:10088000BC000E94E9006B017C0180914805823028
:1008900009F450C0809146058F3F09F46FC08091E4
:1008A0004605803209F46CC080914605803309F416
:1008B00069C084E026C080914A0590914B05A091C3
:1008C0004C05B0914D05892B8A2B8B2B09F484CFD5
:1008D0000E94E90080904A0590904B05A0904C053D
:1008E000B0904D056C197D098E099F0986169706F3
:1008F000A806B90608F070CF809149050E94B3039D
:1009000085E010924F051092710510924E05DF910F
:10091000CF911F910F91FF90EF90DF90CF90BF90FC
:10092000AF909F908F9008959D9191938F5F69CF25
:1009300085EEA5CF80914A0590914B05A0914C057D
:10094000B0914D05892B8A2B8B2B09F49ECF0E94E9
:10095000E90000914A0510914B0520914C0530911A
:100960004D056C197D098E099F0906171707280781
:10097000390708F08ACFC0CF81E0C3CF80E0C1CF74
:1009800082E0BFCF83E0BDCFCF93DF93EA01DC01EC
:1009900011968D919C91DC01ED91FC910280F38187
:1009A000E02D0995C817D90729F481E00E94D403E6
:1009B00091E0811190E0892FDF91CF910895CF933D
:1009C000DF93EC018B818823A1F0888191E09093E3
:1009D0004E058093700510924F051092710581E0CD
:1009E0000E94D40391E0811190E0892FDF91CF9193
:1009F0000895109201051092000510924F05109273
:100A000071050E9495038BE990E09093FD0480931B
:100A1000FC048CE990E09093FF048093FE0481E055
:100A20008B83CE010E94DF04982F8111CECFDDCFC2
:100A30000895E091010580910005E81730F4F0E099
:100A4000EE5FFA4F808190E008958FEF9FEF089559
:100A500090910105809100052FEF3FEF981748F422
:100A6000E92FF0E0EE5FFA4F208130E09F5F909336
:100A70000105C90108958091000590910105891B28
:100A8000990B0895CF92DF92EF92FF920F931F93ED
:100A9000CF93DF937C01CB018A0120914E05222365
:100AA00089F0EB016B01C40ED51ECC15DD0569F094
:100AB0006991D701ED91FC910190F081E02DC70182
:100AC0000995F3CF642F0E946E03C801DF91CF9187
:100AD0001F910F91FF90EF90DF90CF900895CF93EB
:100AE000DF931F92CDB7DEB7698320914E05222395
:100AF000F9F020917105203258F021E030E0FC013E
:100B00003383228390E080E00F90DF91CF910895AE
:100B100080914F05E82FF0E0E05BFA4F99819083D8
:100B20008F5F80934F058093710581E090E0ECCF5B
:100B300061E0CE0101960E946E03F7CF90E080E065
:100B40000895682F82E795E00C94E001CF93DF933E
:100B5000EC0182E795E00E949E01009739F082E760
:100B600095E00E947C01888381E090E0DF91CF9145
:100B70000895809322067093230660932406809143
:100B80001B0690911C06FC01248135812330310520
:100B900080F0208131E030934E0520937005109253
:100BA0004F051092710543E050E062E276E00C944C
:100BB000C40408952F923F924F925F926F927F925A
:100BC0008F929F92AF92BF92CF92DF92EF92FF925D
:100BD0000F931F93CF93DF938093220680911B0680
:100BE00090911C06DC0114962D913C911597232BB6
:100BF00081F02C9131E030934E05209370051092D6
:100C00004F051092710541E050E062E276E00E94EB
:100C1000C404C0901B06D0901C0610E000E082E0E7
:100C2000A82EB12CD1E033243A9495EE892E25ECF0
:100C3000922EF601848195817501E01AF10A8E15D4
:100C40009F0508F47C01D6012C900E94E9002B013D
:100C50003C018091480581116FC0CE2DC13208F052
:100C6000C0E2D093480521E0C5018E199F090817FD
:100C7000190708F420E020934705309246051092AA
:100C800045058FEF8C0F80934405D0932305809109
:100C90002305220C282A20922305809122058130E9
:100CA00009F095C0109222050E94E9002B013C0139
:100CB000809123058093BB0080914A0590914B055C
:100CC000A0914C05B0914D05892B8A2B8B2BA1F05F
:100CD0000E94E90020914A0530914B0540914C0556
:100CE00050914D056419750986099709261737072C
:100CF0004807590708F441C08091BC0083FDD8CF54
:100D00009092BC000E94E9002B013C0180914805B3
:100D1000813009F45FC0809145058C1710F4C091B3
:100D20004505A4E2B5E0E2E0F5E080E08C1751F182
:100D30009D9191938F5FFACF80914A0590914B05D9
:100D4000A0914C05B0914D05892B8A2B8B2B09F472
:100D500080CF0E94E90020914A0530914B054091D7
:100D60004C0550914D056419750986099709261798
:100D700037074807590708F06CCF809149050E9452
:100D8000B303C0E010920105C0930005CE151F0407
:100D900009F048C0F801E55EF94F3F01C301801B2F
:100DA000910B8B5196408E159F05B0F5D60111968B
:100DB0008D919C91DC01ED91FC910284F385E02DF5
:100DC0000995F3018783FFEF6F1A7F0AE7CF8092BF
:100DD000BC0098CF80914A0590914B05A0914C059D
:100DE000B0914D05892B8A2B8B2B09F48FCF0E9454
:100DF000E90020914A0530914B0540914C055091F6
:100E00004D0564197509860997092617370748079C
:100E1000590708F07BCFB1CF0E0D1F1D0230110511
:100E200008F407CF809122069091230698278927FE
:100E30009827DF91CF911F910F91FF90EF90DF9056
:100E4000CF90BF90AF909F908F907F906F905F906A
:100E50004F903F902F90089560911E0670911F064D
:100E60008091200690912106682B792B716C81E08E
:100E70000E94B90560E070E883E00E94B90570E067
:100E800060E082E00E94B90581E00E94DA0597FFE8
:100E9000FBCF80E00E94DA0520911D06022E02C0E1
:100EA000969587950A94E2F7222329F0811528E088
:100EB000920708F0906F08952F923F924F925F92A1
:100EC0006F927F928F929F92AF92BF92CF92DF925A
:100ED000EF92FF920F931F93CF93DF93CDB7DEB7BF
:100EE0002C970FB6F894DEBF0FBECDBFFE01B196B2
:100EF000E190F1908F019E012F5F3F4F59018DE2EC
:100F0000282E2E0132E0430E511C9AE0392EF701B3
:100F10008081882339F1853231F09FEFE91AF90A8F
:100F20000E94A602F4CFF70181818033A1F1F2E0A3
:100F3000EF0EF11C912C90ED980FF701D12CC12CE4
:100F40009A3008F446C0D12CC12C833609F49CC0D9
:100F50000CF057C0853209F4AEC0883509F479C069
:100F60008111D5CF2C960FB6F894DEBF0FBECDBF42
:100F7000DF91CF911F910F91FF90EF90DF90CF9075
:100F8000BF90AF909F908F907F906F905F904F90A9
:100F90003F902F900895828197012D5F3F4F7901F7
:100FA00099249394C8CF9FE9980F9630F0F4282F96
:100FB000082E000C330B275531092B3031052CF648
:100FC0003C9CC0013D9C900D11246C01C20ED31EAF
:100FD00081917F0190ED980F9A3028F7082E000C30
:100FE000990B9C0120533109EBCF9FEB980F963062
:100FF00008F0ABCF282F082E000C330B27533109F4
:10100000DCCF833709F44AC0FCF4843609F07FCF83
:101010003801F2E06F0E711CF80180819181950119
:1010200097FF05C09195819591092982920150E021
:1010300040E06AE070E00E944D02A501692DC60102
:101040000E94B202830163CF853789F0883709F0A7
:101050005ECF3801F2E06F0E711C41E050E0883540
:1010600011F050E040E0950160E170E009C0380106
:1010700032E0630E711C950150E040E06AE070E0E0
:10108000F80180819181D7CF6801F2E0CF0ED11CA9
:10109000F80180810E94A602860139CF4801F2E062
:1010A0008F0E911CF8014081518160E0C6010E94C1
:1010B000B20284012CCF85E233CF2F923F924F9220
:1010C0005F926F927F928F929F92AF92BF92CF92D8
:1010D000DF92EF92FF920F931F93CF93DF93EB0179
:1010E00081E092E00E94EC0281E092E00E94EC023A
:1010F0008B818F938A818F938DEE91E09F938F9355
:101100000E945C0781E092E00E94EC0262E072E0E3
:101110008A819B810E9401110F900F900F900F9078
:10112000892B09F04BC087E092E00E94EC028CE32F
:1011300092E00E94EC0281E092E00E94EC0268E8FA
:1011400073E180E090E00E940E010E942C07BC0138
:10115000990F880B990B20E130E040E050E00E94AD
:101160007B0F69017A01A8E9B8E00E949A0F28E98B
:1011700038E040E050E02C193D094E095F090E941B
:101180007B0F83E592E0211531054105510561F0A2
:1011900057FD05C0293E3340410551051CF085E847
:1011A00092E002C08AE692E00E94EC0281E092E0C6
:1011B0000E94EC0281ED91E00E94EC026FEA72E085
:1011C0008A819B810E940111892B09F050C084EB18
:1011D00092E00E94EC028CE392E00E94EC0281E03B
:1011E00092E00E94EC0268E873E180E090E00E94E7
:1011F0000E010E942C07BC01990F880B990B20E16E
:1012000030E040E050E00E947B0F69017A01A8E9DC
:10121000B8E00E949A0F28E938E040E050E02C192D
:101220003D094E095F090E947B0F243F31054105AE
:10123000510564F48EEF92E02D3E310541055105D4
:1012400064F457FF08C085E892E007C0293E3340A8
:1012500041055105C4F789EE92E00E94EC0281E05D
:1012600092E00E94EC0281ED91E00E94EC026FE0BE
:1012700073E08A819B810E940111892B09F051C082
:1012800084E193E00E94EC028CE392E00E94EC0285
:1012900081E092E00E94EC0268E873E180E090E077
:1012A0000E940E010E942C07BC01990F880B990B1C
:1012B00020E130E040E050E00E947B0F69017A01BC
:1012C000A8E9B8E00E949A0F28E938E040E050E031
:1012D0002C193D094E095F090E947B0F2C3D81E0CE
:1012E00038074105510564F4213D91E03907410576
:1012F00051050CF05EC057FF08C085E892E007C0BA
:10130000293E334041055105C4F785E493E00E942E
:10131000EC0281E092E00E94EC0281ED91E00E94FB
:10132000EC026BE673E08A819B810E940111892B9C
:1013300009F053C084E793E00E94EC028CE392E052
:101340000E94EC0281E092E00E94EC0268E873E106
:1013500080E090E00E940E010E942C07BC01990FD2
:10136000880B990B20E130E040E050E00E947B0FB9
:1013700069017A01A8E9B8E00E949A0F28E938E0EB
:1013800040E050E02C193D094E095F090E947B0F97
:101390002A383105410551057CF482EC93E025386B
:1013A0003105410551057CF457FF0BC085E892E0FB
:1013B0000AC08AE593E0ABCF293E33404105510591
:1013C000ACF789EA93E00E94EC0281E092E00E948F
:1013D000EC0281ED91E00E94EC020A80DB81C02DDD
:1013E00067ED73E0CE010E940111892B09F058C00E
:1013F00079ED272E73E0372E0E942C076C01990F90
:10140000EE08FF08C701B60120E130E040E050E0FF
:101410000E947B0F49015A0168E9462E68E0562E6A
:10142000612C712C481859086A087B08A8E9B8E0B3
:101430000E949A0FA30192010E947B0FE901142FD1
:10144000052FFF92EF92DF92CF923F922F920E9450
:101450005C07BF92AF929F928F9281EE93E09F9331
:101460008F930E945C077F926F925F924F928BEEF8
:1014700093E09F938F930E945C070F931F93DF93DA
:10148000CF9386EF93E09F938F930E945C078DB775
:101490009EB748960FB6F8949EBF0FBE8DBFACCFD7
:1014A00060E074E0CE010E940111892B09F054C064
:1014B00080E1C82ED12CE12CF12C98E9892E98E0FE
:1014C000992EA12CB12C0E942C07BC01990F880BDE
:1014D000990BA70196010E947B0F29013A01A8E907
:1014E000B8E00E949A0FA501940124193509460914
:1014F00057090E947B0F243F310541055105F4F443
:101500008EEF92E02D3E31054105510514F583E53E
:1015100092E02115310541055105D9F057FD0BC069
:10152000255831094109510982EC93E025303105F4
:101530004105510570F085E892E00BC0215D314016
:10154000410951098AE593E02B30310541055105E8
:1015500090F70E94EC02B7CF90E080E0DF91CF914E
:101560001F910F91FF90EF90DF90CF90BF90AF90C1
:101570009F908F907F906F905F904F903F902F90B3
:10158000089585ED8093BC0080914A0590914B05AC
:10159000A0914C05B0914D050796A11DB11D23E00A
:1015A000B695A795979587952A95D1F72091BC0078
:1015B00024FD03C010924805089540914A055091BA
:1015C0004B0560914C0570914D05452B462B472BE3
:1015D00069F30097A105B10541F025E32A95F1F7DC
:1015E00000000197A109B109E1CF809149050C9450
:1015F000B3031F920F920FB60F9211242F933F93B4
:101600008F939F93AF93BF938091F4049091F504CF
:10161000A091F604B091F7043091F30423E0230F76
:101620002D3758F50196A11DB11D2093F304809329
:10163000F4049093F504A093F604B093F70480911A
:10164000F8049091F904A091FA04B091FB0401967A
:10165000A11DB11D8093F8049093F904A093FA049E
:10166000B093FB04BF91AF919F918F913F912F91C8
:101670000F900FBE0F901F90189526E8230F02962B
:10168000A11DB11DD2CF1F920F920FB60F92112440
:101690002F933F934F935F936F937F938F939F937A
:1016A000AF93BF93EF93FF9382E795E00E94BE0153
:1016B000FF91EF91BF91AF919F918F917F916F912A
:1016C0005F914F913F912F910F900FBE0F901F9000
:1016D00018951F920F920FB60F9211242F938F938C
:1016E0009F93EF93FF93E0918205F09183058081B2
:1016F000E0918805F091890582FD1BC09081809161
:101700008B058F5F8F7320918C05821741F0E091DC
:101710008B05F0E0EE58FA4F958F80938B05FF9183
:10172000EF919F918F912F910F900FBE0F901F906F
:1017300018958081F4CF1F920F920FB60F9211244B
:101740002F933F934F935F936F937F938F939F93C9
:10175000AF93BF93EF93FF938091B900887F80365A
:1017600009F44AC0F0F5883209F4A7C018F58031B1
:1017700009F49BC0B8F4882309F4F9C0883009F44F
:1017800094C0FF91EF91BF91AF919F918F917F9105
:101790006F915F914F913F912F910F900FBE0F90DE
:1017A0001F901895883109F488C0803251F78093D2
:1017B000460514C0803409F49DC040F48033B9F369
:1017C0008833F9F68093460585ECB0C0803509F47E
:1017D00085C0883509F496C0883499F60E94C10AFC
:1017E000D0CF883909F48CC038F5883729F050F407
:1017F000883611F0803729F683E0809348051092EF
:101800007D0457C0883809F47BC0803919F08038CE
:1018100009F0B7CF80917D04803208F071C0E0916B
:101820007D0481E08E0F80937D048091BB00F0E009
:10183000E35AFB4F80833DC0803B39F0E0F4803AAF
:1018400009F479C0883A09F09CCF84E08093480578
:1018500010925C0410925B04E091FC04F091FD0492
:10186000099580915B0481110FC081E080935B0436
:1018700010923B0409C0803C09F4A6CF883C09F4CF
:10188000A3CF883B09F07DCFE0915C0481E08E0F0F
:1018900080935C04F0E0E55CFB4F80818093BB00AB
:1018A00090915C0480915B0429C080912305809312
:1018B000BB0085EC8093BC0064CF9091450580917E
:1018C0004405981758F5E091450581E08E0F809307
:1018D0004505F0E0EC5DFA4F8081E9CFE0914505E8
:1018E00081E08E0F809345058091BB00F0E0EC5DB8
:1018F000FA4F808390914505809144059817C8F26E
:1019000085E8D8CFE091450581E08E0F80934505AD
:101910008091BB00F0E0EC5DFA4F80838091470539
:1019200081115CCF81E08093220584EA8093BC0022
:101930001092480526CF85EC8093BC001092480594
:1019400080917D04803230F4E0917D04F0E0E35A30
:10195000FB4F108260917D0470E0E091FE04F091F5
:10196000FF048DE594E0099510927D040ACF109252
:10197000460534CFE2E7F5E01382128288EE93E069
:10198000A0E0B0E084839583A683B7832AE031E0AA
:101990003183208325EC30E03587248724EC30E048
:1019A0003787268720EC30E0318B208B21EC30E02C
:1019B000338B228B22EC30E0358B248B26EC30E00D
:1019C000378B268B118E128E138E148EEFE0F6E07D
:1019D0001382128284839583A683B7838CE191E07E
:1019E00091838083EBE1F6E012821482138280E817
:1019F00090E0968385830895CF93DF931F92CDB7B0
:101A0000DEB7789484B5826084BD84B5816084BD7E
:101A100085B5826085BD85B5816085BD80916E008C
:101A2000816080936E0010928100809181008260BD
:101A300080938100809181008160809381008091FA
:101A400080008160809380008091B10084608093E9
:101A5000B1008091B00081608093B00080917A00E5
:101A6000846080937A0080917A00826080937A000B
:101A700080917A00816080937A0080917A008068FA
:101A800080937A001092C100E0918205F091830565
:101A900082E08083E0917E05F0917F051082E091E5
:101AA0008005F09181058FEC808310928A05E0918A
:101AB0008605F091870586E08083E0918405F091AA
:101AC0008505808180618083E0918405F0918505A2
:101AD000808188608083E0918405F0918505808114
:101AE00080688083E0918405F091850580818F7DF9
:101AF000808368EE73E080E090E00E940E01109217
:101B00008104109280041092830410928204109237
:101B10008504109284041092870410928604109217
:101B200089041092880410928B0410928A041092F7
:101B30008D0410928C0410928F0410928E041092D7
:101B4000910410929004109293041092920486EAE9
:101B500095E09093F1048093F00481EA95E09093EE
:101B60007F0480937E04FF24F394F092F20482E0D9
:101B700094E00E94EC028EE790E00E94DE0266E7AD
:101B800070E08BEF92E00E944D0361E770E08DE51D
:101B900098E00E944D036BE670E082E493E00E94BF
:101BA0004D0380E094E090931F0680931E0686E02C
:101BB00090E00E94DC0F8C0188E4D8018C938FE0C8
:101BC00096E012969C938E93119713961C921397FE
:101BD00080E290E015969C938E93149710931C06C8
:101BE00000931B06109201051092000510924F05FC
:101BF000109271050E9495038BE990E09093FD048B
:101C00008093FC048CE990E09093FF048093FE04A1
:101C1000F801F382C8010E94DF0448EA442E44E040
:101C2000542E50E0C52E50E0D52E5201811132C005
:101C300049E150E06FE174E082E795E00E944001E5
:101C400042E050E06FEF71E082E795E00E944001D2
:101C5000FFCF8B31B9F08F37A1F58091EE049091D1
:101C6000EF04009709F428C101979093EF04809343
:101C7000EE0488E00E94A60280E20E94A60288E0AC
:101C80000E94A602C114D10429F00E94AA01811168
:101C90000E94000019827090F204772099F3E0917D
:101CA000F004F091F104CE0101960995892B51F3CE
:101CB00089818D30F9F06CF6883079F2893009F439
:101CC000FBC02091EE043091EF0425343105D0F6AD
:101CD0008032C4F228553B4FF90180830E94A6024E
:101CE0008091EE049091EF0401969093EF0480931D
:101CF000EE04C8CFE091EE04F091EF04E855FB4FFD
:101D0000108281E092E00E94EC02D2010D9000204E
:101D1000E9F7BD01685A7440B0929504A09294040A
:101D200090E080E040E020E010E000E0FC01E855B9
:101D3000FB4F3081303209F472C02CF4332309F4A4
:101D400057C020E006C0323209F456C0272D3C357A
:101D5000C1F70196861797071CF40A30110531F771
:101D600030E0E32FF0E0E017F1070CF468C080E802
:101D7000E82E84E0F82ED7018D909C901197811465
:101D8000910489F012966D917C91809194049091C8
:101D900095040E945E0F892B31F464E974E0C80158
:101DA000F4010995712CF4E0EF0EF11C84E9E816BA
:101DB00084E0F80601F7772071F08091EE049091AD
:101DC000EF04892B41F086E890E00E94DE028BE769
:101DD00090E00E94DE021092EF041092EE0481E087
:101DE00092E00E94EC028EE790E00E94DE024ACF71
:101DF0000F5F1F4FCB01A5CF2111A3CF108241113F
:101E00000CC0F801EE0FFF1FEC56FB4FAC0147551D
:101E10005B4F5183408341E09CCF40E09ACF41111A
:101E200090CF10820F5F1F4FF801EE0FFF1FEC568F
:101E3000FB4F9C0127553B4F3183208382CFEE0F10
:101E4000FF1FEC56FB4F40815181DA010D900020BD
:101E5000E9F7CD010197841B950B20E0F12C4F2D64
:101E600050E04817590714F03F5F7BCF60817181C4
:101E7000DA01A20FB11DA60FB71FEC900F2EFCE5E3
:101E80009F2EF02DE9100AC01196EC90A2E2EA1202
:101E900005C0640F751FDB01EC922F5F222351F008
:101EA00060817181460F571FDA01A20FB11D6C913D
:101EB000DA016C93F394D3CF87E0E2CEFB01DC012F
:101EC0008D91059080190110D9F3990B0895AA1BE3
:101ED000BB1B51E107C0AA1FBB1FA617B70710F015
:101EE000A61BB70B881F991F5A95A9F78095909547
:101EF000BC01CD010895052E97FB1EF400940E94AD
:101F0000920F57FD07D00E94A50F07FC03D04EF497
:101F10000C94920F50954095309521953F4F4F4F1F
:101F20005F4F089590958095709561957F4F8F4F85
:101F30009F4F08950E94CD0FA59F900DB49F900DC7
:101F4000A49F800D911D11240895A1E21A2EAA1BB1
:101F5000BB1BFD010DC0AA1FBB1FEE1FFF1FA21759
:101F6000B307E407F50720F0A21BB30BE40BF50B56
:101F7000661F771F881F991F1A9469F760957095DF
:101F8000809590959B01AC01BD01CF010895EE0FA6
:101F9000FF1F0590F491E02D0994A29FB001B39F1B
:101FA000C001A39F700D811D1124911DB29F700D62
:101FB000811D1124911D08950F931F93CF93DF93DB
:101FC0008230910510F482E090E0E0912706F091D4
:101FD000280630E020E0B0E0A0E0309799F4211529
:101FE000310509F44AC0281B390B24303105D8F5D6
:101FF0008A819B816115710589F1FB01938382833D
:10200000FE0111C040815181028113814817590797
:10201000E0F04817590799F4109761F012960C9365
:10202000129713961C933296CF01DF91CF911F9197
:102030000F9108950093270610932806F4CF2115D9
:10204000310551F04217530738F0A901DB019A011D
:10205000BD01DF01F801C1CFEF01F9CF9093280650
:1020600080932706CDCFFE01E20FF31F819391935A
:102070002250310939832883D7CF2091250630910A
:102080002606232B41F42091020130910301309365
:10209000260620932506209100013091010121158B
:1020A000310541F42DB73EB740910401509105012F
:1020B000241B350BE0912506F0912606E217F30765
:1020C000A0F42E1B3F0B2817390778F0AC014E5FA8
:1020D0005F4F2417350748F04E0F5F1F50932606B9
:1020E00040932506819391939FCFF0E0E0E09CCF51
:1020F000CF93DF930097E9F0FC01329713821282AD
:10210000A0912706B0912806ED0130E020E010975D
:10211000A1F420813181820F931F209125063091F7
:1021200026062817390709F061C0F0932606E093C8
:102130002506DF91CF910895EA01CE17DF07E8F574
:102140004A815B819E0141155105B1F7E901FB838D
:10215000EA8349915991C40FD51FEC17FD0761F42B
:10216000808191810296840F951FE901998388836C
:10217000828193819B838A83F0E0E0E012968D91C7
:102180009C9113970097B9F52D913C911197CD0132
:102190000296820F931F209125063091260628175C
:1021A000390739F6309751F5109228061092270614
:1021B000B0932606A0932506BCCFD383C28340816B
:1021C0005181840F951FC817D90761F44E5F5F4F87
:1021D00088819981480F591F518340838A819B814F
:1021E000938382832115310509F0B0CFF09328063F
:1021F000E09327069ECFFD01DC01C0CF138212823F
:10220000D7CFFB01DC018D91019080190110D9F32A
:08221000990B0895F894FFCF2B
:1022180000002906800000000000E00140016D0177
:102228002D029E017C019001000000006F0542050F
:102238009E0518053B05280519052D2D2D2D2D2D3D
:102248002D2D2D2D2D2D2D2D2D2D2D2D2D2D2D2DB6
:102258002D2D2D2D2D2D2D2D2D2D2D2D2D2D2D2DA6
:102268002D2D2D2D2D2D2D2D2D004C697374206FA6
:102278006620436F6D6D616E64733A00203E20687E
:10228800656C702000203E207465737420706C614A
:10229800792000203E207465737420766F6C2B20A3
:1022A80000203E207465737420766F6C2D2000200A
:1022B8003E20746573742072657365727665642058
:1022C80000203E207465737420312000203E207465
:1022D80065737420322000203E2065787472612076
:1022E80000457869742E2E2E0052756E6E696E67E1
:1022F8002022657874726122206E6F770052756EA5
:102308006E696E6720546573742025732E2E2E0D0A
:102318000A00706C617900506C6561736520707299
:1023280065737320616E6420686F6C6420746865DF
:1023380020706C617920627574746F6E20666F729C
:102348002035207365636F6E64732E00576169745E
:10235800696E6720666F722035207365636F6E64DF
:10236800732E0020506C61792F5061757365206958
:102378007320696E20537065630020506C61792F5B
:102388005061757365206973206E6F7420696E20C3
:1023980053706563002050726573732074686520FC
:1023A800627574746F6E20796F7520776F756C64C1
:1023B800206C696B6520746F20746573742E0076C9
:1023C8006F6C2B00506C6561736520707265737358
:1023D80020616E6420686F6C642074686520766F75
:1023E8006C2B20627574746F6E20666F72203520B6
:1023F8007365636F6E64732E0020566F6C2B2069B3
:1024080073206E6F7420696E2053706563002056C8
:102418006F6C2B20697320696E205370656300769A
:102428006F6C2D00506C65617365207072657373F5
:1024380020616E6420686F6C6420766F6C2D20625A
:102448007574746F6E20666F722035207365636FC4
:102458006E64732E0020566F6C2D206973206E6F8A
:102468007420696E20537065630020566F6C2D20B0
:10247800697320696E2053706563007265736572B5
:1024880076656400506C656173652070726573735E
:1024980020616E6420686F6C642072657365727663
:1024A800656420627574746F6E20666F72203520C3
:1024B8007365636F6E64732E002052657365727660
:1024C8006564206973206E6F7420696E205370658F
:1024D80063002052657365727665642069732069AC
:1024E8006E2053706563003100725F763A20256470
:1024F8000020766F75743A202564002064656E6F3D
:102508006D3A202564002072323A2025640D0A00B5
:10251800320020547970652068656C7020746F20D3
:102528006C69737420636F6D6D616E64732E004601
:1025380061696C656420746F20696E697469616C87
:0A254800697A65204144532E00001B
:00000001FF
